:100000000C9434000C9449000C9449000C94490061
:100010000C9449000C9449000C9449000C9449003C
:100020000C9449000C9449000C9449000C9449002C
:100030000C9449000C9449000C9449000C9449001C
:100040000C9449000C9449000C9449000C9449000C
:100050000C9449000C9449000C9449000C944900FC
:100060000C9449000C94490011241FBECFEFD8E036
:10007000DEBFCDBF11E0A0E0B1E0E2ECF2E002C0F3
:1000800005900D92A031B107D9F70E94AF000C94F2
:100090005F010C9400008AB18F678AB984B18F60C8
:1000A00084B90895803158F49BB190789BB99BB185
:1000B000E82FF0E0E050FF4F8081892B8BB985B1AC
:1000C000807F85B925B181E090E002C0880F991F3B
:1000D0006A95E2F78F70822B85B9089585B1807F8C
:1000E00085B908950F931F93CF93DF93082F162F91
:1000F000D42FC22F0E946E0060E0802F0E94520019
:100100008FE39FE10197F1F700C000000E946E00AD
:1001100061E0812F0E9452008FE39FE10197F1F788
:1001200000C000000E946E0062E08D2F0E9452000D
:100130008FE39FE10197F1F700C000000E946E007D
:1001400063E08C2F0E9452008FE39FE10197F1F74B
:1001500000C00000DF91CF911F910F9108950E9480
:100160004B00E0E0F0E000E010E0AF014D5F5F4FDA
:100170009A01ADECBCEC0E9450017C01F694E7942E
:10018000F694E794F694E794C701880F991FEE0C54
:10019000FF1CEE0CFF1CEE0CFF1CE80EF91ECA0142
:1001A0008E199F097C01EF0122969E010E94500149
:1001B000AC01569547955695479556954795CA0172
:1001C000880F991F440F551F440F551F440F551F8B
:1001D000480F591FCE01841B950BAC016F019FEF97
:1001E000C91AD90A96010E945001EC01D695C7950B
:1001F000D695C795D695C795CE01880F991FCC0F78
:10020000DD1FCC0FDD1FCC0FDD1FC80FD91FC601AE
:100210008C1B9D0BEC019F010E94500196958795C8
:1002200096958795969587959C01220F331F880F89
:10023000991F880F991F880F991F820F931F2E2DCA
:100240006C2F3E2F381B832F0E9472000F5F1F4FB1
:1002500098013695279536952795ABE7B4E10E942E
:100260005001AC01569547959A01ADECBCEC0E944B
:100270005001FC01F695E795F695E795F695E7951B
:10028000CF01880F991FEE0FFF1FEE0FFF1FEE0F1C
:10029000FF1FE80FF91FCA018E1B9F0BFC0165CFE2
:1002A000A29FB001B39FC001A39F700D811D1124B7
:1002B000911DB29F700D811D1124911D0895F89418
:0202C000FFCF6E
:1002C2007E306D79335B5F707F7B771F4E3D4F478A
:00000001FF
