S02500004578616D706C655F536576656E5F5365676D656E745F446973706C61792E737265636C
S11300000C9434000C9451000C9451000C94510045
S11300100C9451000C9451000C9451000C94510018
S11300200C9451000C94B4000C9451000C945100A5
S11300300C9451000C9451000C9451000C945100F8
S11300400C9451000C9451000C9451000C945100E8
S11300500C9451000C9451000C9451000C945100D8
S11300600C9451000C94510011241FBECFEFD8E022
S1130070DEBFCDBF11E0A0E0B1E0E6E7F3E002C0EF
S113008005900D92A031B107D9F721E0A0E1B1E0CC
S113009001C01D92A531B207E1F70E9400010C9442
S11300A0B9010C94000084B18E6184B98AB18C6169
S11300B08AB987B18F6087B9089586FF03C095B167
S11300C0926095B985FF03C095B1946095B984FF9A
S11300D003C095B1986095B983FF03C095B1906151
S11300E095B982FF03C09BB194609BB981FF03C0A3
S11300F09BB198609BB980FF03C08BB180618BB9C1
S1130100089585B1817E85B98BB1837E8BB988B121
S1130110807F88B90895CF93DF93D82FC62F0E948C
S11301208100D03138F4ED2FF0E0E050FF4F8081B2
S11301300E945D00C13051F028F0C23059F0C33044
S113014069F00FC088B1816088B90BC088B1826042
S113015088B907C088B1846088B903C088B1886051
S113016088B9DF91CF9108951F920F920FB60F9225
S113017011242F933F934F935F936F937F938F93A8
S11301809F93AF93BF93EF93FF9360911401E62F76
S1130190F0E0E05FFE4F80810E948B0080911401AB
S11301A090E0019683709078992324F401978C6FE2
S11301B09F6F019680931401FF91EF91BF91AF91CE
S11301C09F918F917F916F915F914F913F912F916B
S11301D00F900FBE0F901F901895E1EBF0E0808117
S11301E084608083E0E7F0E080818160808378949C
S11301F00895E0E1F1E080836183428323830895DD
S11302000E9453000E94ED00E0E0F0E000E010E006
S1130210AF014D5F5F4F9A01ADECBCEC0E94AA01A7
S11302207C01F694E794F694E794F694E794C70176
S1130230880F991FEE0CFF1CEE0CFF1CEE0CFF1C2C
S1130240E80EF91E2E193F097901EF0122969E014D
S11302500E94AA01AC015695479556954795569527
S11302604795CA01880F991F440F551F440F551F06
S1130270440F551F480F591FCE01841B950BAC0129
S11302806F019FEFC91AD90A96010E94AA01EC01D5
S1130290D695C795D695C795D695C795CE01880F9F
S11302A0991FCC0FDD1FCC0FDD1FCC0FDD1FC80F36
S11302B0D91F2C1B3D0BE9019F010E94AA019695B1
S11302C0879596958795969587959C01220F331F60
S11302D0880F991F880F991F880F991F820F931FEA
S11302E02E2D6C2F3E2F381B832F0E94F9008FEF89
S11302F099EF20E0815090402040E1F700C00000D9
S11303000F5F1F4F98013695279536952795ABE7D4
S1130310B4E10E94AA01AC01569547959A01ADEC4F
S1130320BCEC0E94AA01FC01F695E795F695E795C9
S1130330F695E795CF01880F991FEE0FFF1FEE0F7B
S1130340FF1FEE0FFF1FE80FF91FCA018E1B9F0B43
S1130350FC015ECFA29FB001B39FC001A39F700DAB
S1130360811D1124911DB29F700D811D1124911DB9
S10903700895F894FFCF8C
S11303767E306D79335B5F707F7B771F4E3D4F47D1
S9030000FC
