:100000000C9434000C9451000C9451000C94510049
:100010000C9451000C9451000C9451000C9451001C
:100020000C9451000C9451000C9451000C9451000C
:100030000C9451000C9451000C9451000C945100FC
:100040000C947A000C9451000C9451000C945100C3
:100050000C9451000C9451000C9451000C945100DC
:100060000C9451000C94510011241FBECFEFD8E026
:10007000DEBFCDBF11E0A0E0B1E0EEEFF2E002C0E4
:1000800005900D92A031B107D9F721E0A0E1B1E0D0
:1000900001C01D92A531B207E1F70E94C4000C9483
:1000A0007D010C9400008AB18F678AB984B18F609A
:1000B00084B908959BB190789BB9803140F49BB18D
:1000C000E82FF0E0E050FF4F8081892B8BB985B19C
:1000D000807F85B925B181E090E002C0880F991F2B
:1000E0006A95E2F78F70822B85B9089585B1807F7C
:1000F00085B908951F920F920FB60F9211242F9376
:100100003F934F935F936F937F938F939F93AF939F
:10011000BF93EF93FF930E94760060911401E62F46
:10012000F0E0E05FFE4F80810E945A008091140150
:1001300090E0019683709078992324F401978C6F56
:100140009F6F019680931401FF91EF91BF91AF9142
:100150009F918F917F916F915F914F913F912F91DF
:100160000F900FBE0F901F90189514BC84E085BDB2
:1001700081E080936E0078940895E0E1F1E080835F
:1001800061834283238308950E9453000E94B50037
:10019000E0E0F0E000E010E0AF014D5F5F4F9A015A
:1001A000ADECBCEC0E946E017C01F694E794F694F1
:1001B000E794F694E794C701880F991FEE0CFF1C93
:1001C000EE0CFF1CEE0CFF1CE80EF91E2E193F0969
:1001D0007901EF0122969E010E946E01AC015695B5
:1001E00047955695479556954795CA01880F991F8B
:1001F000440F551F440F551F440F551F480F591FDB
:10020000CE01841B950BAC016F019FEFC91AD90A6F
:1002100096010E946E01EC01D695C795D695C795BB
:10022000D695C795CE01880F991FCC0FDD1FCC0F37
:10023000DD1FCC0FDD1FC80FD91F2C1B3D0BE901A3
:100240009F010E946E019695879596958795969544
:1002500087959C01220F331F880F991F880F991FC4
:10026000880F991F820F931F2E2D6C2F3E2F381B46
:10027000832F0E94BD008FEF99EF20E081509040C6
:100280002040E1F700C000000F5F1F4F9801369536
:10029000279536952795ABE7B4E10E946E01AC0136
:1002A000569547959A01ADECBCEC0E946E01FC019D
:1002B000F695E795F695E795F695E795CF01880FC2
:1002C000991FEE0FFF1FEE0FFF1FEE0FFF1FE80F2E
:1002D000F91FCA018E1B9F0BFC015ECFA29FB001CC
:1002E000B39FC001A39F700D811D1124911DB29F6A
:0E02F000700D811D1124911D0895F894FFCF0B
:1002FE007E306D79335B5F707F7B771F4E3D4F474E
:00000001FF
