S02200004578656D706C655F54656D70657261747572655F53656E736F722E737265636C
S11300000C9434000C9446000C9446000C94460066
S11300100C9446000C9446000C9446000C94460044
S11300200C9446000C9446000C9446000C94460034
S11300300C9446000C9446000C9446000C94460024
S11300400C9446000C9446000C9446000C94460014
S11300500C9446000C9448000C9446000C94460002
S11300600C9446000C94460011241FBECFEFD8E038
S1130070DEBFCDBF21E0A0E0B1E001C01D92A230FF
S1130080B207E1F70E94C1000C9414010C94000023
S11300901F920F920FB60F9211248F939F9380910A
S11300A078009091790090930101809300019F91D1
S11300B08F910F900FBE0F901F90189587B18F7D71
S11300C087B988B18F7D88B985E480937C008FEEF1
S11300D080937A0010927B00EEE7F0E080818062EA
S11300E0808378940895809100019091010188574C
S11300F091099695879596958795969587950895F0
S11301009093C5008093C40088E18093C1008EE081
S11301108093C20008959091C00095FFFCCF809316
S1130120C60008950F931F93CF93DF9300D000D0A0
S113013000D0CDB7DEB74AE0BE016F5F7F4F0E94AB
S1130140DF008E010F5F1F4F0AC00E948B0083EFF8
S113015091E00197F1F700C000000F5F1F4FF80115
S113016080818111F2CF8AE00E948B0026960FB61F
S1130170F894DEBF0FBECDBFDF91CF911F910F91D9
S113018008958AB181608AB98BB181608BB987E6A1
S113019090E00E9480000E945E009BB181E089276C
S11301A08BB90E9473000E9492002FEF81EE94E0BD
S11301B0215080409040E1F700C00000EECFBB2703
S11301C04A3031F4992322F4BDE2909581959F4FF2
S11301D00C94EB00BB27FB015527AA27880F991F16
S11301E0AA1FA41710F0A41B83955051B9F7A05D62
S11301F0AA3308F0A95DA193009779F7B111B193DF
S11302001192CB010C940401DC01FC01672F719164
S11302107723E1F7329704C07C916D9370836291E8
S10F0220AE17BF07C8F30895F894FFCF91
S9030000FC
