S01700004578656D706C655F427574746F6E732E73726563EF
S11300000C9434000C9451000C9451000C94DB00BB
S11300100C9451000C9451000C9451000C94510018
S11300200C9451000C9451000C9451000C94510008
S11300300C9451000C9451000C9451000C945100F8
S11300400C9451000C9451000C9451000C945100E8
S11300500C9451000C9451000C9451000C945100D8
S11300600C9451000C94510011241FBECFEFD8E022
S1130070DEBFCDBF11E0A0E0B1E0ECEDF2E002C0E4
S113008005900D92A031B107D9F721E0A0E1B1E0CC
S113009001C01D92A032B207E1F70E9437010C940F
S11300A06C010C9400008AB18F678AB984B18F60A7
S11300B084B90895803158F49BB190789BB99BB171
S11300C0E82FF0E0E050FF4F8081892B8BB985B198
S11300D0807F85B925B181E090E002C0880F991F27
S11300E06A95E2F78F70822B85B9089585B1807F78
S11300F085B908950F931F93CF93DF93082F162F7D
S1130100D42FC22F0E94760060E0802F0E945A00F4
S11301108FE39FE10197F1F700C000000E94760091
S113012061E0812F0E945A008FE39FE10197F1F76C
S113013000C000000E94760062E08D2F0E945A00E9
S11301408FE39FE10197F1F700C000000E94760061
S113015063E08C2F0E945A008FE39FE10197F1F72F
S113016000C00000DF91CF911F910F91089584B1D9
S11301708F7084B985B1806F85B9E8E6F0E080813D
S113018081608083EBE6F0E08081806F80837894E7
S113019008959CEF980F943068F4E82FF0E03497BA
S11301A0EE0FFF1FEE0FFF1FE05FFE4F71836083B2
S11301B05383428308951F920F920FB60F92112416
S11301C02F933F934F935F936F937F938F939F935B
S11301D0AF93BF93CF93EF93FF93C0E022C083B15B
S11301E090E024E02C0F02C0959587952A95E2F7BC
S11301F080FD16C08C2F90E0FC01EE0FFF1FEE0F68
S1130200FF1FE05FFE4F20813181232B49F0DF0186
S11302100190F081E02D12968D919C911397099590
S1130220CF5FC430E0F2FF91EF91CF91BF91AF91D6
S11302309F918F917F916F915F914F913F912F91FA
S11302400F900FBE0F901F901895FC0120812F5F17
S11302509DEC299F912D1124969596959695990F2D
S1130260392F330F330F930F291B20830895CF9316
S1130270DF9300D000D0CDB7DEB719821A821B827B
S11302801C820E94B7000E945300AE014C5F5F4F76
S113029065E271E084E00E94C900AE014D5F5F4FEA
S11302A065E271E085E00E94C900AE014E5F5F4FD8
S11302B065E271E086E00E94C900AE014F5F5F4FC6
S11302C065E271E087E00E94C90029814A816B815F
S10F02D08C810E947A00F9CFF894FFCFD3
S11302DC7E306D79335B5F707F7B771F4E3D4F476C
S9030000FC
