S01A00004578656D706C655F546163686F6D657465722E73726563CF
S11300000C9434000C9446000C9446000C94460066
S11300100C9446000C9446000C9446000C94460044
S11300200C9446000C9446000C94A4000C944600D6
S11300300C9446000C9446000C9446000C94460024
S11300400C9446000C9446000C9446000C94460014
S11300500C9446000C9446000C9446000C94460004
S11300600C9446000C94460011241FBECFEFD8E038
S1130070DEBFCDBF21E0A0E0B1E001C01D92A430FD
S1130080B207E1F70E94E1000C944B010C940000CC
S11300908AB180668AB983EA84BD83E085BD17BCD2
S11300A018BC08952FEF829FC00111249C0136953E
S11300B0279536952795ABE7B4E10E9407019695FD
S11300C0879588BD08959093C5008093C40088E106
S11300D08093C1008EE08093C20008959091C00087
S11300E095FFFCCF8093C60008950F931F93CF9381
S11300F0DF9300D000D000D0CDB7DEB74AE0BE0118
S11301006F5F7F4F0E9416018E010F5F1F4F0AC061
S11301100E946E0083EF91E00197F1F700C00000A8
S11301200F5F1F4FF80180818111F2CF8AE00E9496
S11301306E0026960FB6F894DEBF0FBECDBFDF91DA
S1130140CF911F910F9108951F920F920FB60F92A6
S113015011242F933F938F939F93EF93FF93809159
S1130160810086FF09C0809186009091870090935A
S113017003018093020114C080918600909187004E
S11301802091020130910301821B930B8295929579
S1130190907F9827807F9827909301018093000196
S11301A0E1E8F0E0908180E489278083FF91EF917A
S11301B09F918F913F912F910F900FBE0F901F90A1
S11301C0189587E690E00E9463000E94480084B17D
S11301D08E7F84B985B1816085B984E48093810080
S11301E080E280936F00789482E30E9452008091B1
S11301F00001909101010E9475002FEF83ED90E3BF
S1130200215080409040E1F700C00000F0CFA29F51
S1130210B001B39FC001A39F700D811D1124911DD6
S1130220B29F700D811D1124911D0895BB274A3082
S113023031F4992322F4BDE2909581959F4F0C945B
S11302402201BB27FB015527AA27880F991FAA1F44
S1130250A41710F0A41B83955051B9F7A05DAA33DD
S113026008F0A95DA193009779F7B111B1931192A8
S1130270CB010C943B01DC01FC01672F71917723C6
S1130280E1F7329704C07C916D9370836291AE174D
S10D0290BF07C8F30895F894FFCFE8
S9030000FC
