S01A00004578656D706C655F546163686F6D657465722E73726563CF
S11300000C9434000C9446000C9446000C94460066
S11300100C9446000C9446000C9446000C94460044
S11300200C9446000C9446000C949A000C944600E0
S11300300C9446000C9446000C9446000C94460024
S11300400C9446000C9446000C9446000C94460014
S11300500C9446000C9446000C9446000C94460004
S11300600C9446000C94460011241FBECFEFD8E038
S1130070DEBFCDBF21E0A0E0B1E001C01D92A230FF
S1130080B207E1F70E94B6000C940F010C94000033
S113009090E09C01220F331F880F991F880F991F2E
S11300A0880F991F820F931F90938B0080938A006F
S11300B008959093C5008093C40088E18093C100A3
S11300C08EE08093C20008959091C00095FFFCCF0C
S11300D08093C60008950F931F93CF93DF9300D0AE
S11300E000D000D0CDB7DEB74AE0BE016F5F7F4FCE
S11300F00E94DA008E010F5F1F4F0AC00E94640045
S113010083EF91E00197F1F700C000000F5F1F4FEC
S1130110F80180818111F2CF8AE00E946400269662
S11301200FB6F894DEBF0FBECDBFDF91CF911F9104
S11301300F9108951F920F920FB60F9211248F936F
S11301409F93EF93FF93E6E8F0E080819181909391
S113015001018093000111821082FF91EF919F9120
S11301608F910F900FBE0F901F90189587E690E027
S11301700E94590082E30E94480084B18E7F84B9B2
S113018085B1816085B984E48093810080E28093A5
S11301906F00789480910001909101010E946B009E
S11301A02FEF83ED90E3215080409040E1F700C0B1
S11301B00000F0CFBB274A3031F4992322F4BDE28A
S11301C0909581959F4F0C94E600BB27FB01552722
S11301D0AA27880F991FAA1FA41710F0A41B8395A0
S11301E05051B9F7A05DAA3308F0A95DA193009717
S11301F079F7B111B1931192CB010C94FF00DC019A
S1130200FC01672F71917723E1F7329704C07C9149
S11302106D9370836291AE17BF07C8F30895F89485
S1050220FFCF0A
S9030000FC
