:100000000C9434000C9446000C9446000C9446006A
:100010000C9446000C9446000C9446000C94460048
:100020000C9446000C9446000C9446000C94460038
:100030000C9446000C9446000C9446000C94460028
:100040000C9446000C9446000C9446000C94460018
:100050000C9446000C9448000C9446000C94460006
:100060000C9446000C94460011241FBECFEFD8E03C
:10007000DEBFCDBF21E0A0E0B1E001C01D92A23003
:10008000B207E1F70E94F5000C9452010C940000B5
:100090001F920F920FB60F9211248F939F9380910E
:1000A00078009091790090930101809300019F91D5
:1000B0008F910F900FBE0F901F90189587B18F7D75
:1000C00087B988B18F7D88B985E480937C008FEEF5
:1000D00080937A0010927B00EEE7F0E080818062EE
:1000E0008083789408958091000190910101885750
:1000F00091099695879596958795969587950895F4
:100100009093C5008093C40088E18093C1008EE085
:100110008093C20008959091C00095FFFCCF80931A
:10012000C60008950F931F93CF93DF9300D000D0A4
:1001300000D0CDB7DEB74AE0BE016F5F7F4F0E94AF
:100140001D018E010F5F1F4F0AC00E948B0083EFBD
:1001500091E00197F1F700C000000F5F1F4FF80119
:1001600080818111F2CF8AE00E948B0026960FB623
:10017000F894DEBF0FBECDBFDF91CF911F910F91DD
:10018000089584B1866084B983EA8093800081E019
:1001900080938100109289001092880010928B0049
:1001A00010928A00089590E09C01220F331F880F5F
:1001B000991F880F991F880F991F820F931F909383
:1001C000890080938800089590E09C01220F331FDE
:1001D000880F991F880F991F880F991F820F931FEF
:1001E00090938B0080938A0008950E94C1000E9422
:1001F0005E0087E690E00E9480000E947300C82F96
:1002000099270E949200C63430F080E00E94D3000B
:1002100082E30E94E400C93230F480E00E94E400EE
:1002200082E30E94D3002FEF89E698E121508040BD
:100230009040E1F700C00000E0CFBB274A3031F426
:10024000992322F4BDE2909581959F4F0C9429014A
:10025000BB27FB015527AA27880F991FAA1FA417A0
:1002600010F0A41B83955051B9F7A05DAA3308F094
:10027000A95DA193009779F7B111B1931192CB01C8
:100280000C944201DC01FC01672F71917723E1F7A7
:10029000329704C07C916D9370836291AE17BF0753
:0802A000C8F30895F894FFCFA4
:00000001FF
