S0140000466F75725F446973706C61792E737265633F
S11300000C9434000C9449000C9449000C9449005D
S11300100C9449000C9449000C9449000C94490038
S11300200C9449000C9449000C9449000C94490028
S11300300C9449000C9449000C9449000C94490018
S11300400C9449000C9449000C9449000C94490008
S11300500C9449000C9449000C9449000C944900F8
S11300600C9449000C94490011241FBECFEFD8E032
S1130070DEBFCDBF11E0A0E0B1E0EAE4F3E002C0EE
S113008005900D92AA30B107D9F70E94FE000C9496
S1130090A3010C940000CF93DF93CDB7DEB787E2C2
S11300A090E02FEFFC01208384E290E024E230E032
S11300B0F90120812F60FC0120830000DF91CF91A2
S11300C00895CF93DF93CDB7DEB72B970FB6F8948F
S11300D0DEBF0FBECDBF8B872AE0E0E0F1E0CE01AA
S11300E00196DC0101900D922A95E1F78B858A3007
S11300F078F488E290E02B85222F30E0AE014F5F48
S11301005F4F240F351FF9012081FC01208300007B
S113011000002B960FB6F894DEBF0FBECDBFDF9163
S1130120CF910895CF93DF931F92CDB7DEB7898324
S113013085E290E025E230E0F9012081207FFC0196
S1130140208385E290E025E230E0F9012081622FEE
S11301502981422F50E021E030E002C0220F331FFA
S11301604A95E2F72F70262BFC01208300000F90A4
S1130170DF91CF910895CF93DF93CDB7DEB785E2BA
S113018090E025E230E0F9012081207FFC0120830A
S11301900000DF91CF910895CF93DF9300D000D07A
S11301A0CDB7DEB789836A834B832C830E94BB005F
S11301B089810E94610080E00E9492000E94BB003D
S11301C08A810E94610081E00E9492000E94BB002B
S11301D08B810E94610082E00E9492000E94BB0019
S11301E08C810E94610083E00E94920000000F90C5
S11301F00F900F900F90DF91CF910895FF920F937E
S11302001F93CF93DF9300D000D0CDB7DEB7198210
S11302101A821B821C820E944B0089819A81AB81C5
S1130220BC8124E630E040E050E0BC01CD010E94F6
S11302308101DA01C9012AE030E040E050E0BC016C
S1130240CD010E948101DC01CB01F82E89819A81C4
S1130250AB81BC8128EE33E040E050E0BC01CD012D
S11302600E948101DA01C9012AE030E040E050E057
S1130270BC01CD010E948101DC01CB01082F8981E1
S11302809A81AB81BC8120E137E240E050E0BC01BF
S1130290CD010E948101DA01C9012AE030E040E089
S11302A050E0BC01CD010E948101DC01CB01182F7B
S11302B089819A81AB81BC8120EA36E841E050E033
S11302C0BC01CD010E948101DA01C9012AE030E0BC
S11302D040E050E0BC01CD010E948101DC01CB0172
S11302E02F2D402F612F0E94CC0089819A81AB81F0
S11302F0BC810196A11DB11D89839A83AB83BC8304
S11303008CCFA1E21A2EAA1BBB1BFD010DC0AA1F94
S1130310BB1FEE1FFF1FA217B307E407F50720F06A
S1130320A21BB30BE40BF50B661F771F881F991FE5
S11303301A9469F760957095809590959B01AC012E
S10D0340BD01CF010895F894FFCF2A
S10D034A7E306D79335B5F707F7BBA
S9030000FC
