S0140000466F75725F446973706C61792E737265633F
S11300000C9434000C9449000C9449000C9449005D
S11300100C9449000C9449000C9449000C94490038
S11300200C9449000C9449000C9449000C94490028
S11300300C9449000C9449000C9449000C94490018
S11300400C9449000C9449000C9449000C94490008
S11300500C9449000C9449000C9449000C944900F8
S11300600C9449000C94490011241FBECFEFD8E032
S1130070DEBFCDBF11E0A0E0B1E0ECE6F3E002C0EA
S113008005900D92A031B107D9F70E94EB000C94B2
S1130090B4010C940000CF93DF93CDB7DEB787E2B1
S11300A090E02FEFFC01208384E290E024E230E032
S11300B0F90120812F60FC0120830000DF91CF91A2
S11300C00895CF93DF93CDB7DEB762970FB6F89458
S11300D0DEBF0FBECDBF898B6A8B20E1E0E0F1E08B
S11300E0CE010196DC0101900D922A95E1F78989F0
S11300F0803170F488E290E02989222F30E0AE014B
S11301004F5F5F4F240F351FF9012081FC012083CD
S113011085E290E025E230E0F9012081207FFC01B6
S1130120208385E290E025E230E0F9012081622F0E
S11301302A89422F50E021E030E002C0220F331F11
S11301404A95E2F72F70262BFC012083000062966B
S11301500FB6F894DEBF0FBECDBFDF91CF910895E7
S1130160CF93DF93CDB7DEB785E290E025E230E0B0
S1130170F9012081207FFC0120830000DF91CF91D1
S11301800895CF93DF9300D000D0CDB7DEB7898335
S11301906A834B832C830E94B00060E089810E94B3
S11301A061000E94B00061E08A810E9461000E94A7
S11301B0B00062E08B810E9461000E94B00063E0A5
S11301C08C810E94610000000F900F900F900F909F
S11301D0DF91CF9108951F93CF93DF9300D000D088
S11301E0CDB7DEB71A8219821C821B820E944B0093
S11301F08B819C81AC014D5F5F4F9A01ADECBCECEF
S11302000E94A501969587959695879596958795CD
S1130210880F991F9C01220F331F220F331F820F57
S1130220931F9A01281B390BC901182F8B819C81BC
S1130230AC014E5F5F4F9A01ADECBCEC0E94A5018E
S1130240969587959695879596958795880F991F86
S11302509C01220F331F220F331F820F931F9A0119
S1130260281B390BC901F82F8B819C81AC014F5F8E
S11302705F4F9A01ADECBCEC0E94A5019695879561
S11302809695879596958795880F991F9C01220FBF
S1130290331F220F331F820F931F9A01281B390B20
S11302A0C901E82F4B815C819A01ADECBCEC0E9442
S11302B0A501969587959695879596958795880F28
S11302C0991F9C01220F331F220F331F820F931F8C
S11302D09A01281B390BC901212F4F2F6E2F0E9421
S11302E0C10089819A8101969A83898389819A813F
S11302F09695879596958795969587959C01A5ECF7
S1130300B0E20E94A501AC01529542954F70452779
S11303105F7045279A01ADECBCEC0E94A50196954F
S113032087959695879596958795880F991F9C0133
S1130330220F331F220F331F820F931F9A01281B92
S1130340390BC9019C838B8353CFA29FB001B39F08
S1130350C001A39F700D811D1124911DB29F700DCA
S10F0360811D1124911D0895F894FFCF15
S113036C7E306D79335B5F707F7B771F4E3D4F47DB
S9030000FC
