S02200004578656D706C655F54656D70657261747572655F53656E736F722E737265636C
S11300000C9434000C9446000C9446000C94460066
S11300100C9446000C9446000C9446000C94460044
S11300200C9446000C9446000C9446000C94460034
S11300300C9446000C9446000C9446000C94460024
S11300400C9446000C9446000C9446000C94460014
S11300500C9446000C94A8000C9446000C944600A2
S11300600C9446000C94460011241FBECFEFD8E038
S1130070DEBFCDBF21E0A0E0B1E001C01D92A230FF
S1130080B207E1F70E94D4000C9421010C94000003
S11300909093C5008093C40088E18093C1008EE0F2
S11300A08093C20008959091C00095FFFCCF809387
S11300B0C6000895EF92FF920F931F93CF93DF939F
S11300C07C01C0E0D0E000E117E235C0C701B8010F
S11300D00E94FE00AB019B01ADECBCEC0E9412013E
S11300E09695879596958795969587959C01220F69
S11300F0331F880F991F880F991F880F991F820F2C
S1130100931F9A01281B390BC901805D0E9453007B
S11301108FE39FE10197F1F700C000009801ADEC77
S1130120BCEC0E9412018C01169507951695079553
S1130130169507952196C530D10544F28AE00E94B0
S11301405300DF91CF911F910F91FF90EF9008958D
S11301501F920F920FB60F9211242F933F934F9338
S11301605F936F937F938F939F93AF93BF93EF931B
S1130170FF9380917800909179009093010180938E
S113018000010E945A00FF91EF91BF91AF919F919E
S11301908F917F916F915F914F913F912F910F902C
S11301A00FBE0F901F90189587E690E00E944800BC
S11301B087B18E7F87B988B18E7F88B980E48093B8
S11301C07C008FEE80937A0010927B008EE3809304
S11301D07E0078948AB184608AB98BB184608BB9CB
S11301E09BB184E089278BB92FEF89E698E12150F0
S11301F080409040E1F700C00000F2CFAA1BBB1B77
S113020051E107C0AA1FBB1FA617B70710F0A61B12
S1130210B70B881F991F5A95A9F780959095BC0133
S1130220CD010895A29FB001B39FC001A39F700D9B
S1130230811D1124911DB29F700D811D1124911DEA
S10902400895F894FFCFBD
S9030000FC
